{
  "contractName": "Lottery",
  "abi": [
    {
      "inputs": [],
      "stateMutability": "nonpayable",
      "type": "constructor"
    },
    {
      "anonymous": false,
      "inputs": [
        {
          "indexed": false,
          "internalType": "address",
          "name": "winner",
          "type": "address"
        },
        {
          "indexed": false,
          "internalType": "uint256",
          "name": "amountWon",
          "type": "uint256"
        }
      ],
      "name": "showWinner",
      "type": "event"
    },
    {
      "inputs": [],
      "name": "owner",
      "outputs": [
        {
          "internalType": "address",
          "name": "",
          "type": "address"
        }
      ],
      "stateMutability": "view",
      "type": "function",
      "constant": true
    },
    {
      "inputs": [
        {
          "internalType": "uint256",
          "name": "",
          "type": "uint256"
        }
      ],
      "name": "players",
      "outputs": [
        {
          "internalType": "address",
          "name": "",
          "type": "address"
        }
      ],
      "stateMutability": "view",
      "type": "function",
      "constant": true
    },
    {
      "inputs": [],
      "name": "registerPlayer",
      "outputs": [],
      "stateMutability": "payable",
      "type": "function",
      "payable": true
    },
    {
      "inputs": [],
      "name": "getRandomNumber",
      "outputs": [
        {
          "internalType": "uint256",
          "name": "",
          "type": "uint256"
        }
      ],
      "stateMutability": "view",
      "type": "function",
      "constant": true
    },
    {
      "inputs": [],
      "name": "pickWinner",
      "outputs": [],
      "stateMutability": "nonpayable",
      "type": "function"
    },
    {
      "inputs": [],
      "name": "getPlayers",
      "outputs": [
        {
          "internalType": "address[]",
          "name": "",
          "type": "address[]"
        }
      ],
      "stateMutability": "view",
      "type": "function",
      "constant": true
    }
  ],
  "bytecode": "0x608060405234801561001057600080fd5b5033600160006101000a81548173ffffffffffffffffffffffffffffffffffffffff021916908373ffffffffffffffffffffffffffffffffffffffff160217905550610b5a806100616000396000f3fe6080604052600436106100555760003560e01c80635c07a4b01461005a5780635d495aea146100645780638b5b9ccc1461007b5780638da5cb5b146100a6578063dbdff2c1146100d1578063f71d96cb146100fc575b600080fd5b610062610139565b005b34801561007057600080fd5b506100796101e8565b005b34801561008757600080fd5b506100906103f2565b60405161009d91906106b2565b60405180910390f35b3480156100b257600080fd5b506100bb610480565b6040516100c891906106e3565b60405180910390f35b3480156100dd57600080fd5b506100e66104a6565b6040516100f39190610717565b60405180910390f35b34801561010857600080fd5b50610123600480360381019061011e9190610763565b6104dc565b60405161013091906106e3565b60405180910390f35b671bc16d674ec800003411610183576040517f08c379a000000000000000000000000000000000000000000000000000000000815260040161017a90610813565b60405180910390fd5b6000339080600181540180825580915050600190039060005260206000200160009091909190916101000a81548173ffffffffffffffffffffffffffffffffffffffff021916908373ffffffffffffffffffffffffffffffffffffffff160217905550565b600160009054906101000a900473ffffffffffffffffffffffffffffffffffffffff1673ffffffffffffffffffffffffffffffffffffffff163373ffffffffffffffffffffffffffffffffffffffff1614610278576040517f08c379a000000000000000000000000000000000000000000000000000000000815260040161026f906108a5565b60405180910390fd5b600080805490506102876104a6565b61029191906108f4565b90507f4a5c57890adaa7d4249e78790e7bbb9b1c14d730c02bca111b166c54875cc9dd600082815481106102c8576102c7610925565b5b9060005260206000200160009054906101000a900473ffffffffffffffffffffffffffffffffffffffff1647604051610302929190610954565b60405180910390a16000818154811061031e5761031d610925565b5b9060005260206000200160009054906101000a900473ffffffffffffffffffffffffffffffffffffffff1673ffffffffffffffffffffffffffffffffffffffff166108fc479081150290604051600060405180830381858888f1935050505015801561038e573d6000803e3d6000fd5b50600067ffffffffffffffff8111156103aa576103a961097d565b5b6040519080825280602002602001820160405280156103d85781602001602082028036833780820191505090505b50600090805190602001906103ee92919061051b565b5050565b6060600080548060200260200160405190810160405280929190818152602001828054801561047657602002820191906000526020600020905b8160009054906101000a900473ffffffffffffffffffffffffffffffffffffffff1673ffffffffffffffffffffffffffffffffffffffff168152602001906001019080831161042c575b5050505050905090565b600160009054906101000a900473ffffffffffffffffffffffffffffffffffffffff1681565b6000444260006040516020016104be93929190610aeb565b6040516020818303038152906040528051906020012060001c905090565b600081815481106104ec57600080fd5b906000526020600020016000915054906101000a900473ffffffffffffffffffffffffffffffffffffffff1681565b828054828255906000526020600020908101928215610594579160200282015b828111156105935782518260006101000a81548173ffffffffffffffffffffffffffffffffffffffff021916908373ffffffffffffffffffffffffffffffffffffffff1602179055509160200191906001019061053b565b5b5090506105a191906105a5565b5090565b5b808211156105be5760008160009055506001016105a6565b5090565b600081519050919050565b600082825260208201905092915050565b6000819050602082019050919050565b600073ffffffffffffffffffffffffffffffffffffffff82169050919050565b6000610619826105ee565b9050919050565b6106298161060e565b82525050565b600061063b8383610620565b60208301905092915050565b6000602082019050919050565b600061065f826105c2565b61066981856105cd565b9350610674836105de565b8060005b838110156106a557815161068c888261062f565b975061069783610647565b925050600181019050610678565b5085935050505092915050565b600060208201905081810360008301526106cc8184610654565b905092915050565b6106dd8161060e565b82525050565b60006020820190506106f860008301846106d4565b92915050565b6000819050919050565b610711816106fe565b82525050565b600060208201905061072c6000830184610708565b92915050565b600080fd5b610740816106fe565b811461074b57600080fd5b50565b60008135905061075d81610737565b92915050565b60006020828403121561077957610778610732565b5b60006107878482850161074e565b91505092915050565b600082825260208201905092915050565b7f546865206d696e696d756d20616d6f756e7420746f207061727469636970617460008201527f6520697320322065746865720000000000000000000000000000000000000000602082015250565b60006107fd602c83610790565b9150610808826107a1565b604082019050919050565b6000602082019050818103600083015261082c816107f0565b9050919050565b7f4f6e6c79206f776e65722063616e206578656375746520746869732066756e6360008201527f74696f6e00000000000000000000000000000000000000000000000000000000602082015250565b600061088f602483610790565b915061089a82610833565b604082019050919050565b600060208201905081810360008301526108be81610882565b9050919050565b7f4e487b7100000000000000000000000000000000000000000000000000000000600052601260045260246000fd5b60006108ff826106fe565b915061090a836106fe565b92508261091a576109196108c5565b5b828206905092915050565b7f4e487b7100000000000000000000000000000000000000000000000000000000600052603260045260246000fd5b600060408201905061096960008301856106d4565b6109766020830184610708565b9392505050565b7f4e487b7100000000000000000000000000000000000000000000000000000000600052604160045260246000fd5b6000819050919050565b6109c76109c2826106fe565b6109ac565b82525050565b600081549050919050565b600081905092915050565b60008190508160005260206000209050919050565b610a018161060e565b82525050565b6000610a1383836109f8565b60208301905092915050565b60008160001c9050919050565b600073ffffffffffffffffffffffffffffffffffffffff82169050919050565b6000610a5f610a5a83610a1f565b610a2c565b9050919050565b6000610a728254610a4c565b9050919050565b6000600182019050919050565b6000610a91826109cd565b610a9b81856109d8565b9350610aa6836109e3565b8060005b83811015610ade57610abb82610a66565b610ac58882610a07565b9750610ad083610a79565b925050600181019050610aaa565b5085935050505092915050565b6000610af782866109b6565b602082019150610b0782856109b6565b602082019150610b178284610a86565b915081905094935050505056fea264697066735822122082b536544bade665fc46a26351170706291fd737b3eb779df4dff453fa60782364736f6c634300080e0033",
  "immutableReferences": {},
  "source": "// SPDX-License-Identifier: GPL-3.0\npragma solidity ^0.8.0;\n\ncontract Lottery{\n\n    address[] public players;\n    address public owner;\n\n    constructor(){\n        owner = msg.sender;\n    }\n\n    function registerPlayer() public payable {\n        require(msg.value > 2 ether, \"The minimum amount to participate is 2 ether\");\n        players.push(msg.sender);\n    }\n\n    function getRandomNumber() public view returns(uint){\n        return uint(keccak256(abi.encodePacked(block.difficulty, block.timestamp, players)));\n    }\n\n    event showWinner(address winner, uint amountWon);\n\n    function pickWinner() public onlyOwner {\n        uint index =  getRandomNumber() % players.length;\n        emit showWinner(players[index], address(this).balance);\n        payable (players[index]).transfer(address(this).balance);\n        players = new address[](0);\n\n    }\n\n    modifier onlyOwner{\n        require(msg.sender == owner, \"Only owner can execute this function\");\n        _;\n    }\n\n    function getPlayers() public view returns (address[] memory){\n        return players;\n    }\n\n\n}",
  "sourcePath": "/Users/maurivargas17/Desktop/Lottery Testing/contracts/Lottery.sol",
  "compiler": {
    "name": "solc",
    "version": "0.8.14+commit.80d49f37.Emscripten.clang"
  },
  "schemaVersion": "3.4.7",
  "updatedAt": "2022-06-07T17:50:54.543Z",
  "networkType": "ethereum",
  "devdoc": {
    "kind": "dev",
    "methods": {},
    "version": 1
  },
  "userdoc": {
    "kind": "user",
    "methods": {},
    "version": 1
  }
}