{
  "_format": "hh-sol-artifact-1",
  "contractName": "Lottery",
  "sourceName": "src/hardhat-ethereum/contracts/Lottery.sol",
  "abi": [
    {
      "inputs": [],
      "stateMutability": "nonpayable",
      "type": "constructor"
    },
    {
      "anonymous": false,
      "inputs": [
        {
          "indexed": false,
          "internalType": "address",
          "name": "winner",
          "type": "address"
        },
        {
          "indexed": false,
          "internalType": "uint256",
          "name": "amountWon",
          "type": "uint256"
        }
      ],
      "name": "showWinner",
      "type": "event"
    },
    {
      "inputs": [],
      "name": "getPlayers",
      "outputs": [
        {
          "internalType": "address[]",
          "name": "",
          "type": "address[]"
        }
      ],
      "stateMutability": "view",
      "type": "function"
    },
    {
      "inputs": [],
      "name": "getRandomNumber",
      "outputs": [
        {
          "internalType": "uint256",
          "name": "",
          "type": "uint256"
        }
      ],
      "stateMutability": "view",
      "type": "function"
    },
    {
      "inputs": [],
      "name": "owner",
      "outputs": [
        {
          "internalType": "address",
          "name": "",
          "type": "address"
        }
      ],
      "stateMutability": "view",
      "type": "function"
    },
    {
      "inputs": [],
      "name": "pickWinner",
      "outputs": [],
      "stateMutability": "nonpayable",
      "type": "function"
    },
    {
      "inputs": [
        {
          "internalType": "uint256",
          "name": "",
          "type": "uint256"
        }
      ],
      "name": "players",
      "outputs": [
        {
          "internalType": "address",
          "name": "",
          "type": "address"
        }
      ],
      "stateMutability": "view",
      "type": "function"
    },
    {
      "inputs": [],
      "name": "registerPlayer",
      "outputs": [],
      "stateMutability": "payable",
      "type": "function"
    }
  ],
  "bytecode": "0x608060405234801561001057600080fd5b5033600160006101000a81548173ffffffffffffffffffffffffffffffffffffffff021916908373ffffffffffffffffffffffffffffffffffffffff160217905550610b65806100616000396000f3fe6080604052600436106100555760003560e01c80635c07a4b01461005a5780635d495aea146100645780638b5b9ccc1461007b5780638da5cb5b146100a6578063dbdff2c1146100d1578063f71d96cb146100fc575b600080fd5b610062610139565b005b34801561007057600080fd5b506100796101e8565b005b34801561008757600080fd5b50610090610464565b60405161009d919061087b565b60405180910390f35b3480156100b257600080fd5b506100bb6104f2565b6040516100c89190610837565b60405180910390f35b3480156100dd57600080fd5b506100e6610518565b6040516100f391906108dd565b60405180910390f35b34801561010857600080fd5b50610123600480360381019061011e9190610649565b61054e565b6040516101309190610837565b60405180910390f35b671bc16d674ec800003411610183576040517f08c379a000000000000000000000000000000000000000000000000000000000815260040161017a9061089d565b60405180910390fd5b6000339080600181540180825580915050600190039060005260206000200160009091909190916101000a81548173ffffffffffffffffffffffffffffffffffffffff021916908373ffffffffffffffffffffffffffffffffffffffff160217905550565b600160009054906101000a900473ffffffffffffffffffffffffffffffffffffffff1673ffffffffffffffffffffffffffffffffffffffff163373ffffffffffffffffffffffffffffffffffffffff1614610278576040517f08c379a000000000000000000000000000000000000000000000000000000000815260040161026f906108bd565b60405180910390fd5b60008080549050610287610518565b61029191906109fa565b90507f4a5c57890adaa7d4249e78790e7bbb9b1c14d730c02bca111b166c54875cc9dd600082815481106102ee577f4e487b7100000000000000000000000000000000000000000000000000000000600052603260045260246000fd5b9060005260206000200160009054906101000a900473ffffffffffffffffffffffffffffffffffffffff1647604051610328929190610852565b60405180910390a16000818154811061036a577f4e487b7100000000000000000000000000000000000000000000000000000000600052603260045260246000fd5b9060005260206000200160009054906101000a900473ffffffffffffffffffffffffffffffffffffffff1673ffffffffffffffffffffffffffffffffffffffff166108fc479081150290604051600060405180830381858888f193505050501580156103da573d6000803e3d6000fd5b50600067ffffffffffffffff81111561041c577f4e487b7100000000000000000000000000000000000000000000000000000000600052604160045260246000fd5b60405190808252806020026020018201604052801561044a5781602001602082028036833780820191505090505b506000908051906020019061046092919061058d565b5050565b606060008054806020026020016040519081016040528092919081815260200182805480156104e857602002820191906000526020600020905b8160009054906101000a900473ffffffffffffffffffffffffffffffffffffffff1673ffffffffffffffffffffffffffffffffffffffff168152602001906001019080831161049e575b5050505050905090565b600160009054906101000a900473ffffffffffffffffffffffffffffffffffffffff1681565b600044426000604051602001610530939291906107fe565b6040516020818303038152906040528051906020012060001c905090565b6000818154811061055e57600080fd5b906000526020600020016000915054906101000a900473ffffffffffffffffffffffffffffffffffffffff1681565b828054828255906000526020600020908101928215610606579160200282015b828111156106055782518260006101000a81548173ffffffffffffffffffffffffffffffffffffffff021916908373ffffffffffffffffffffffffffffffffffffffff160217905550916020019190600101906105ad565b5b5090506106139190610617565b5090565b5b80821115610630576000816000905550600101610618565b5090565b60008135905061064381610b18565b92915050565b60006020828403121561065b57600080fd5b600061066984828501610634565b91505092915050565b600061067e83836106a2565b60208301905092915050565b600061069683836106c0565b60208301905092915050565b6106ab8161099a565b82525050565b6106ba8161099a565b82525050565b6106c98161099a565b82525050565b60006106da8261091d565b6106e4818561094d565b93506106ef836108f8565b8060005b838110156107205781516107078882610672565b975061071283610933565b9250506001810190506106f3565b5085935050505092915050565b600061073882610928565b610742818561095e565b935061074d83610908565b8060005b838110156107855761076282610a5a565b61076c888261068a565b975061077783610940565b925050600181019050610751565b5085935050505092915050565b600061079f602c83610969565b91506107aa82610a7a565b604082019050919050565b60006107c2602483610969565b91506107cd82610ac9565b604082019050919050565b6107e1816109cc565b82525050565b6107f86107f3826109cc565b6109f0565b82525050565b600061080a82866107e7565b60208201915061081a82856107e7565b60208201915061082a828461072d565b9150819050949350505050565b600060208201905061084c60008301846106b1565b92915050565b600060408201905061086760008301856106b1565b61087460208301846107d8565b9392505050565b6000602082019050818103600083015261089581846106cf565b905092915050565b600060208201905081810360008301526108b681610792565b9050919050565b600060208201905081810360008301526108d6816107b5565b9050919050565b60006020820190506108f260008301846107d8565b92915050565b6000819050602082019050919050565b60008190508160005260206000209050919050565b600081519050919050565b600081549050919050565b6000602082019050919050565b6000600182019050919050565b600082825260208201905092915050565b600081905092915050565b600082825260208201905092915050565b600073ffffffffffffffffffffffffffffffffffffffff82169050919050565b60006109a5826109ac565b9050919050565b600073ffffffffffffffffffffffffffffffffffffffff82169050919050565b6000819050919050565b60006109e96109e483610a6d565b61097a565b9050919050565b6000819050919050565b6000610a05826109cc565b9150610a10836109cc565b925082610a2057610a1f610a2b565b5b828206905092915050565b7f4e487b7100000000000000000000000000000000000000000000000000000000600052601260045260246000fd5b6000610a6682546109d6565b9050919050565b60008160001c9050919050565b7f546865206d696e696d756d20616d6f756e7420746f207061727469636970617460008201527f6520697320322065746865720000000000000000000000000000000000000000602082015250565b7f4f6e6c79206f776e65722063616e206578656375746520746869732066756e6360008201527f74696f6e00000000000000000000000000000000000000000000000000000000602082015250565b610b21816109cc565b8114610b2c57600080fd5b5056fea2646970667358221220d0a8b283423646cb2aabef7b980d0c9baee43bae51aa117219e42b0a307e6ca764736f6c63430008040033",
  "linkReferences": {},
  "deployedLinkReferences": {}
}