{
  "contractName": "Inbox",
  "abi": [
    {
      "inputs": [
        {
          "internalType": "string",
          "name": "initialMessage",
          "type": "string"
        }
      ],
      "stateMutability": "nonpayable",
      "type": "constructor"
    },
    {
      "inputs": [],
      "name": "message",
      "outputs": [
        {
          "internalType": "string",
          "name": "",
          "type": "string"
        }
      ],
      "stateMutability": "view",
      "type": "function",
      "constant": true
    },
    {
      "inputs": [],
      "name": "getMessage",
      "outputs": [
        {
          "internalType": "string",
          "name": "",
          "type": "string"
        }
      ],
      "stateMutability": "view",
      "type": "function",
      "constant": true
    },
    {
      "inputs": [
        {
          "internalType": "string",
          "name": "newMessage",
          "type": "string"
        }
      ],
      "name": "setMessage",
      "outputs": [],
      "stateMutability": "nonpayable",
      "type": "function"
    }
  ],
  "bytecode": "0x60806040523480156200001157600080fd5b5060405162000a2c38038062000a2c8339818101604052810190620000379190620002e5565b80600090805190602001906200004f92919062000098565b5033600160006101000a81548173ffffffffffffffffffffffffffffffffffffffff021916908373ffffffffffffffffffffffffffffffffffffffff160217905550506200039a565b828054620000a69062000365565b90600052602060002090601f016020900481019282620000ca576000855562000116565b82601f10620000e557805160ff191683800117855562000116565b8280016001018555821562000116579182015b8281111562000115578251825591602001919060010190620000f8565b5b50905062000125919062000129565b5090565b5b80821115620001445760008160009055506001016200012a565b5090565b6000604051905090565b600080fd5b600080fd5b600080fd5b600080fd5b6000601f19601f8301169050919050565b7f4e487b7100000000000000000000000000000000000000000000000000000000600052604160045260246000fd5b620001b18262000166565b810181811067ffffffffffffffff82111715620001d357620001d262000177565b5b80604052505050565b6000620001e862000148565b9050620001f68282620001a6565b919050565b600067ffffffffffffffff82111562000219576200021862000177565b5b620002248262000166565b9050602081019050919050565b60005b838110156200025157808201518184015260208101905062000234565b8381111562000261576000848401525b50505050565b60006200027e6200027884620001fb565b620001dc565b9050828152602081018484840111156200029d576200029c62000161565b5b620002aa84828562000231565b509392505050565b600082601f830112620002ca57620002c96200015c565b5b8151620002dc84826020860162000267565b91505092915050565b600060208284031215620002fe57620002fd62000152565b5b600082015167ffffffffffffffff8111156200031f576200031e62000157565b5b6200032d84828501620002b2565b91505092915050565b7f4e487b7100000000000000000000000000000000000000000000000000000000600052602260045260246000fd5b600060028204905060018216806200037e57607f821691505b60208210810362000394576200039362000336565b5b50919050565b61068280620003aa6000396000f3fe608060405234801561001057600080fd5b50600436106100415760003560e01c8063368b877214610046578063ce6d41de14610062578063e21f37ce14610080575b600080fd5b610060600480360381019061005b9190610467565b61009e565b005b61006a61014a565b6040516100779190610538565b60405180910390f35b6100886101dc565b6040516100959190610538565b60405180910390f35b338073ffffffffffffffffffffffffffffffffffffffff16600160009054906101000a900473ffffffffffffffffffffffffffffffffffffffff1673ffffffffffffffffffffffffffffffffffffffff161461012f576040517f08c379a0000000000000000000000000000000000000000000000000000000008152600401610126906105cc565b60405180910390fd5b816000908051906020019061014592919061026a565b505050565b6060600080546101599061061b565b80601f01602080910402602001604051908101604052809291908181526020018280546101859061061b565b80156101d25780601f106101a7576101008083540402835291602001916101d2565b820191906000526020600020905b8154815290600101906020018083116101b557829003601f168201915b5050505050905090565b600080546101e99061061b565b80601f01602080910402602001604051908101604052809291908181526020018280546102159061061b565b80156102625780601f1061023757610100808354040283529160200191610262565b820191906000526020600020905b81548152906001019060200180831161024557829003601f168201915b505050505081565b8280546102769061061b565b90600052602060002090601f01602090048101928261029857600085556102df565b82601f106102b157805160ff19168380011785556102df565b828001600101855582156102df579182015b828111156102de5782518255916020019190600101906102c3565b5b5090506102ec91906102f0565b5090565b5b808211156103095760008160009055506001016102f1565b5090565b6000604051905090565b600080fd5b600080fd5b600080fd5b600080fd5b6000601f19601f8301169050919050565b7f4e487b7100000000000000000000000000000000000000000000000000000000600052604160045260246000fd5b6103748261032b565b810181811067ffffffffffffffff821117156103935761039261033c565b5b80604052505050565b60006103a661030d565b90506103b2828261036b565b919050565b600067ffffffffffffffff8211156103d2576103d161033c565b5b6103db8261032b565b9050602081019050919050565b82818337600083830152505050565b600061040a610405846103b7565b61039c565b90508281526020810184848401111561042657610425610326565b5b6104318482856103e8565b509392505050565b600082601f83011261044e5761044d610321565b5b813561045e8482602086016103f7565b91505092915050565b60006020828403121561047d5761047c610317565b5b600082013567ffffffffffffffff81111561049b5761049a61031c565b5b6104a784828501610439565b91505092915050565b600081519050919050565b600082825260208201905092915050565b60005b838110156104ea5780820151818401526020810190506104cf565b838111156104f9576000848401525b50505050565b600061050a826104b0565b61051481856104bb565b93506105248185602086016104cc565b61052d8161032b565b840191505092915050565b6000602082019050818103600083015261055281846104ff565b905092915050565b7f4f6e6c7920746865206f776e65722063616e206368616e676520746865206d6560008201527f7373616765000000000000000000000000000000000000000000000000000000602082015250565b60006105b66025836104bb565b91506105c18261055a565b604082019050919050565b600060208201905081810360008301526105e5816105a9565b9050919050565b7f4e487b7100000000000000000000000000000000000000000000000000000000600052602260045260246000fd5b6000600282049050600182168061063357607f821691505b602082108103610646576106456105ec565b5b5091905056fea264697066735822122085c8829a447942fc8a81be99d9db85cf408982c50d769c4e9ef42d09b5765a8764736f6c634300080e0033",
  "immutableReferences": {},
  "source": "// SPDX-License-Identifier: GPL-3.0\npragma solidity  ^0.8.0;\n\ncontract Inbox{\n\n    string public message;\n    address private ownerAddress;\n\n    constructor(string memory initialMessage){\n        message = initialMessage;\n        ownerAddress = msg.sender;\n    }\n\n    function getMessage() public view returns(string memory) {\n        return message;\n    }\n\n    function setMessage(string memory newMessage) public onlyOwner(msg.sender){\n        // require(msg.sender == ownerAddress, \"Only the owner can modify the message\");\n        message = newMessage;\n    }\n\n\n    modifier onlyOwner(address client){\n        require(ownerAddress == client, \"Only the owner can change the message\");\n        _;\n    }\n\n}",
  "sourcePath": "/Users/maurivargas17/Desktop/LotteryApp/src/ethereum/contracts/Inbox.sol",
  "compiler": {
    "name": "solc",
    "version": "0.8.14+commit.80d49f37.Emscripten.clang"
  },
  "schemaVersion": "3.4.7",
  "updatedAt": "2022-06-15T17:33:58.205Z",
  "networkType": "ethereum",
  "devdoc": {
    "kind": "dev",
    "methods": {},
    "version": 1
  },
  "userdoc": {
    "kind": "user",
    "methods": {},
    "version": 1
  }
}