{
  "contractName": "TestCollege",
  "abi": [
    {
      "inputs": [],
      "stateMutability": "nonpayable",
      "type": "constructor"
    },
    {
      "anonymous": false,
      "inputs": [
        {
          "indexed": false,
          "internalType": "string",
          "name": "name",
          "type": "string"
        },
        {
          "indexed": false,
          "internalType": "string",
          "name": "message",
          "type": "string"
        }
      ],
      "name": "messageEvent",
      "type": "event"
    },
    {
      "inputs": [
        {
          "internalType": "uint256",
          "name": "",
          "type": "uint256"
        }
      ],
      "name": "listNotes",
      "outputs": [
        {
          "internalType": "uint256",
          "name": "id",
          "type": "uint256"
        },
        {
          "internalType": "string",
          "name": "name",
          "type": "string"
        },
        {
          "internalType": "uint256",
          "name": "score",
          "type": "uint256"
        },
        {
          "internalType": "bool",
          "name": "finalized",
          "type": "bool"
        },
        {
          "internalType": "uint256",
          "name": "typeTest",
          "type": "uint256"
        }
      ],
      "stateMutability": "view",
      "type": "function"
    },
    {
      "inputs": [],
      "name": "getRevisionsClosed",
      "outputs": [
        {
          "internalType": "bool",
          "name": "",
          "type": "bool"
        }
      ],
      "stateMutability": "view",
      "type": "function"
    },
    {
      "inputs": [],
      "name": "getProffessorAddress",
      "outputs": [
        {
          "internalType": "address",
          "name": "",
          "type": "address"
        }
      ],
      "stateMutability": "view",
      "type": "function"
    },
    {
      "inputs": [
        {
          "components": [
            {
              "internalType": "uint256",
              "name": "id",
              "type": "uint256"
            },
            {
              "internalType": "string",
              "name": "name",
              "type": "string"
            },
            {
              "internalType": "uint256",
              "name": "score",
              "type": "uint256"
            },
            {
              "internalType": "bool",
              "name": "finalized",
              "type": "bool"
            },
            {
              "internalType": "uint256",
              "name": "typeTest",
              "type": "uint256"
            }
          ],
          "internalType": "struct TestCollege.Note",
          "name": "noteData",
          "type": "tuple"
        }
      ],
      "name": "createRevision",
      "outputs": [],
      "stateMutability": "nonpayable",
      "type": "function"
    },
    {
      "inputs": [
        {
          "internalType": "uint256",
          "name": "id",
          "type": "uint256"
        },
        {
          "internalType": "uint256",
          "name": "score",
          "type": "uint256"
        }
      ],
      "name": "finalizeReview",
      "outputs": [],
      "stateMutability": "payable",
      "type": "function"
    },
    {
      "inputs": [
        {
          "internalType": "uint256",
          "name": "id",
          "type": "uint256"
        }
      ],
      "name": "request2T",
      "outputs": [],
      "stateMutability": "payable",
      "type": "function"
    },
    {
      "inputs": [
        {
          "internalType": "bool",
          "name": "state",
          "type": "bool"
        }
      ],
      "name": "closeOrOpenRevisions",
      "outputs": [],
      "stateMutability": "nonpayable",
      "type": "function"
    },
    {
      "inputs": [],
      "name": "balanceOfCollege",
      "outputs": [
        {
          "internalType": "uint256",
          "name": "",
          "type": "uint256"
        }
      ],
      "stateMutability": "view",
      "type": "function"
    }
  ],
  "bytecode": "0x608060405260008060146101000a81548160ff02191690831515021790555034801561002a57600080fd5b50336000806101000a81548173ffffffffffffffffffffffffffffffffffffffff021916908373ffffffffffffffffffffffffffffffffffffffff1602179055506114e78061007a6000396000f3fe60806040526004361061007b5760003560e01c8063b9d527da1161004e578063b9d527da1461010c578063e10be18014610137578063f2ed08d814610178578063f6248434146101a35761007b565b8063097a67ba146100805780631a3ff95a146100ab5780633f1f97f4146100c75780639afc8940146100f0575b600080fd5b34801561008c57600080fd5b506100956101cc565b6040516100a29190610b31565b60405180910390f35b6100c560048036038101906100c09190610b8c565b610262565b005b3480156100d357600080fd5b506100ee60048036038101906100e99190610bf1565b6104aa565b005b61010a60048036038101906101059190610c1e565b610555565b005b34801561011857600080fd5b5061012161077c565b60405161012e9190610c9f565b60405180910390f35b34801561014357600080fd5b5061015e60048036038101906101599190610b8c565b6107a5565b60405161016f959493929190610d62565b60405180910390f35b34801561018457600080fd5b5061018d610870565b60405161019a9190610dbc565b60405180910390f35b3480156101af57600080fd5b506101ca60048036038101906101c59190610fbe565b610886565b005b60003373ffffffffffffffffffffffffffffffffffffffff1660008054906101000a900473ffffffffffffffffffffffffffffffffffffffff1673ffffffffffffffffffffffffffffffffffffffff161461025c576040517f08c379a000000000000000000000000000000000000000000000000000000000815260040161025390611053565b60405180910390fd5b47905090565b600060149054906101000a900460ff16156102b2576040517f08c379a00000000000000000000000000000000000000000000000000000000081526004016102a9906110bf565b60405180910390fd5b600a6102bd34610a58565b116102fd576040517f08c379a00000000000000000000000000000000000000000000000000000000081526004016102f490611151565b60405180910390fd5b6000600160008381526020019081526020016000206040518060a001604052908160008201548152602001600182018054610337906111a0565b80601f0160208091040260200160405190810160405280929190818152602001828054610363906111a0565b80156103b05780601f10610385576101008083540402835291602001916103b0565b820191906000526020600020905b81548152906001019060200180831161039357829003601f168201915b50505050508152602001600282015481526020016003820160009054906101000a900460ff1615151515815260200160048201548152505090506001816080015114801561040057508060600151155b61043f576040517f08c379a00000000000000000000000000000000000000000000000000000000081526004016104369061121d565b60405180910390fd5b600260016000848152602001908152602001600020600401819055506000600160008481526020019081526020016000206002018190555060006001600084815260200190815260200160002060030160006101000a81548160ff0219169083151502179055505050565b3373ffffffffffffffffffffffffffffffffffffffff1660008054906101000a900473ffffffffffffffffffffffffffffffffffffffff1673ffffffffffffffffffffffffffffffffffffffff1614610538576040517f08c379a000000000000000000000000000000000000000000000000000000000815260040161052f90611053565b60405180910390fd5b80600060146101000a81548160ff02191690831515021790555050565b600060149054906101000a900460ff16156105a5576040517f08c379a000000000000000000000000000000000000000000000000000000000815260040161059c906110bf565b60405180910390fd5b3373ffffffffffffffffffffffffffffffffffffffff1660008054906101000a900473ffffffffffffffffffffffffffffffffffffffff1673ffffffffffffffffffffffffffffffffffffffff1614610633576040517f08c379a000000000000000000000000000000000000000000000000000000000815260040161062a90611053565b60405180910390fd5b600060016000848152602001908152602001600020600401541461068c576040517f08c379a000000000000000000000000000000000000000000000000000000000815260040161068390611289565b60405180910390fd5b600180600084815260200190815260200160002060030160006101000a81548160ff021916908315150217905550600180600084815260200190815260200160002060040181905550806001600084815260200190815260200160002060020181905550605a6001600084815260200190815260200160002060020154111561077857606460016000848152602001908152602001600020600201819055507f11672bd0f01174c0c26e70f2a39b677d213333209f7bce80f92c1894c3a2ea636001600084815260200190815260200160002060010160405161076f919061138a565b60405180910390a15b5050565b60008060009054906101000a900473ffffffffffffffffffffffffffffffffffffffff16905090565b60016020528060005260406000206000915090508060000154908060010180546107ce906111a0565b80601f01602080910402602001604051908101604052809291908181526020018280546107fa906111a0565b80156108475780601f1061081c57610100808354040283529160200191610847565b820191906000526020600020905b81548152906001019060200180831161082a57829003601f168201915b5050505050908060020154908060030160009054906101000a900460ff16908060040154905085565b60008060149054906101000a900460ff16905090565b3373ffffffffffffffffffffffffffffffffffffffff1660008054906101000a900473ffffffffffffffffffffffffffffffffffffffff1673ffffffffffffffffffffffffffffffffffffffff1614610914576040517f08c379a000000000000000000000000000000000000000000000000000000000815260040161090b90611053565b60405180910390fd5b600060149054906101000a900460ff1615610964576040517f08c379a000000000000000000000000000000000000000000000000000000000815260040161095b906110bf565b60405180910390fd5b6005816020015151116109ac576040517f08c379a00000000000000000000000000000000000000000000000000000000081526004016109a390611431565b60405180910390fd5b6040518060a0016040528082600001518152602001826020015181526020016000815260200160001515815260200160008152506001600083600001518152602001908152602001600020600082015181600001556020820151816001019080519060200190610a1d929190610a75565b506040820151816002015560608201518160030160006101000a81548160ff0219169083151502179055506080820151816004015590505050565b6000670de0b6b3a764000082610a6e9190611480565b9050919050565b828054610a81906111a0565b90600052602060002090601f016020900481019282610aa35760008555610aea565b82601f10610abc57805160ff1916838001178555610aea565b82800160010185558215610aea579182015b82811115610ae9578251825591602001919060010190610ace565b5b509050610af79190610afb565b5090565b5b80821115610b14576000816000905550600101610afc565b5090565b6000819050919050565b610b2b81610b18565b82525050565b6000602082019050610b466000830184610b22565b92915050565b6000604051905090565b600080fd5b600080fd5b610b6981610b18565b8114610b7457600080fd5b50565b600081359050610b8681610b60565b92915050565b600060208284031215610ba257610ba1610b56565b5b6000610bb084828501610b77565b91505092915050565b60008115159050919050565b610bce81610bb9565b8114610bd957600080fd5b50565b600081359050610beb81610bc5565b92915050565b600060208284031215610c0757610c06610b56565b5b6000610c1584828501610bdc565b91505092915050565b60008060408385031215610c3557610c34610b56565b5b6000610c4385828601610b77565b9250506020610c5485828601610b77565b9150509250929050565b600073ffffffffffffffffffffffffffffffffffffffff82169050919050565b6000610c8982610c5e565b9050919050565b610c9981610c7e565b82525050565b6000602082019050610cb46000830184610c90565b92915050565b600081519050919050565b600082825260208201905092915050565b60005b83811015610cf4578082015181840152602081019050610cd9565b83811115610d03576000848401525b50505050565b6000601f19601f8301169050919050565b6000610d2582610cba565b610d2f8185610cc5565b9350610d3f818560208601610cd6565b610d4881610d09565b840191505092915050565b610d5c81610bb9565b82525050565b600060a082019050610d776000830188610b22565b8181036020830152610d898187610d1a565b9050610d986040830186610b22565b610da56060830185610d53565b610db26080830184610b22565b9695505050505050565b6000602082019050610dd16000830184610d53565b92915050565b600080fd5b7f4e487b7100000000000000000000000000000000000000000000000000000000600052604160045260246000fd5b610e1482610d09565b810181811067ffffffffffffffff82111715610e3357610e32610ddc565b5b80604052505050565b6000610e46610b4c565b9050610e528282610e0b565b919050565b600080fd5b600080fd5b600080fd5b600067ffffffffffffffff821115610e8157610e80610ddc565b5b610e8a82610d09565b9050602081019050919050565b82818337600083830152505050565b6000610eb9610eb484610e66565b610e3c565b905082815260208101848484011115610ed557610ed4610e61565b5b610ee0848285610e97565b509392505050565b600082601f830112610efd57610efc610e5c565b5b8135610f0d848260208601610ea6565b91505092915050565b600060a08284031215610f2c57610f2b610dd7565b5b610f3660a0610e3c565b90506000610f4684828501610b77565b600083015250602082013567ffffffffffffffff811115610f6a57610f69610e57565b5b610f7684828501610ee8565b6020830152506040610f8a84828501610b77565b6040830152506060610f9e84828501610bdc565b6060830152506080610fb284828501610b77565b60808301525092915050565b600060208284031215610fd457610fd3610b56565b5b600082013567ffffffffffffffff811115610ff257610ff1610b5b565b5b610ffe84828501610f16565b91505092915050565b7f596f7520617265206e6f7420746865206f776e65722e00000000000000000000600082015250565b600061103d601683610cc5565b915061104882611007565b602082019050919050565b6000602082019050818103600083015261106c81611030565b9050919050565b7f546865207265766973696f6e732066696e616c697a65642e0000000000000000600082015250565b60006110a9601883610cc5565b91506110b482611073565b602082019050919050565b600060208201905081810360008301526110d88161109c565b9050919050565b7f54686520616d6f756e742073686f756c64206265206d6f7265207468616e203160008201527f304554482e000000000000000000000000000000000000000000000000000000602082015250565b600061113b602583610cc5565b9150611146826110df565b604082019050919050565b6000602082019050818103600083015261116a8161112e565b9050919050565b7f4e487b7100000000000000000000000000000000000000000000000000000000600052602260045260246000fd5b600060028204905060018216806111b857607f821691505b6020821081036111cb576111ca611171565b5b50919050565b7f596f7572207465737420315020776173206e6f742072657669657765642e0000600082015250565b6000611207601e83610cc5565b9150611212826111d1565b602082019050919050565b60006020820190508181036000830152611236816111fa565b9050919050565b7f596f75722074657374207761732072657669657765642e000000000000000000600082015250565b6000611273601783610cc5565b915061127e8261123d565b602082019050919050565b600060208201905081810360008301526112a281611266565b9050919050565b60008190508160005260206000209050919050565b600081546112cb816111a0565b6112d58186610cc5565b945060018216600081146112f0576001811461130257611335565b60ff1983168652602086019350611335565b61130b856112a9565b60005b8381101561132d5781548189015260018201915060208101905061130e565b808801955050505b50505092915050565b7f436f6e67726174756c6174696f6e732e00000000000000000000000000000000600082015250565b6000611374601083610cc5565b915061137f8261133e565b602082019050919050565b600060408201905081810360008301526113a481846112be565b905081810360208301526113b781611367565b905092915050565b7f546865206e616d65206f662070726f647563742073686f756c64206265206d6f60008201527f7265207468616e2e000000000000000000000000000000000000000000000000602082015250565b600061141b602883610cc5565b9150611426826113bf565b604082019050919050565b6000602082019050818103600083015261144a8161140e565b9050919050565b7f4e487b7100000000000000000000000000000000000000000000000000000000600052601260045260246000fd5b600061148b82610b18565b915061149683610b18565b9250826114a6576114a5611451565b5b82820490509291505056fea26469706673582212205255e94d705830ce53dd82964c12f41bb940136a02fd5873ead329695914008a64736f6c634300080e0033",
  "immutableReferences": {},
  "source": "// SPDX-License-Identifier: GPL-3.0\npragma solidity ^0.8.0;\ncontract TestCollege {\n    struct Note {\n        uint id;\n        string name;\n        uint score;\n        bool finalized;\n        uint typeTest;\n    }\n    address private proffesorAddress;\n    bool private revisionsClosed = false;\n    event messageEvent(string name, string message);\n    mapping(uint => Note) public listNotes;\n    constructor() {\n        proffesorAddress = msg.sender;\n    }\n\n    function getRevisionsClosed() public view returns (bool){\n        return revisionsClosed;\n    }\n\n    function getProffessorAddress() public view returns (address){\n        return proffesorAddress;\n    }\n    /**\n     * @dev create new Note and add in listNotes\n * @param noteData new Note object\n */\n    function createRevision(Note memory noteData) public onlyProffesor closedRevisions {\n        require(bytes(noteData.name).length > 5, \"The name of product should be more than.\");\n        listNotes[noteData.id] = Note(noteData.id, noteData.name, 0, false, 0);\n    }\n    /**\n     * @dev Proffesor can finalize revision for one student\n* @param id of student, score of student\n*/\n    function finalizeReview(uint id, uint score) public payable closedRevisions onlyProffesor {\n        require(listNotes[id].typeTest == 0, \"Your test was reviewed.\");\n        listNotes[id].finalized = true;\n        listNotes[id].typeTest = 1;\n        listNotes[id].score = score;\n        if (listNotes[id].score > 90) {\n            listNotes[id].score = 100;\n            emit messageEvent(listNotes[id].name, \"Congratulations.\");\n        }\n    }\n    /**\n     * @dev Student can request 2T test\n * @param id of student\n */\n    function request2T(uint id) public payable closedRevisions {\n        require(convertWeiToEther(msg.value) > 10, \"The amount should be more than 10ETH.\");\n        Note memory noteData = listNotes[id];\n        require(noteData.typeTest == 1 && !noteData.finalized, \"Your test 1P was not reviewed.\");\n        listNotes[id].typeTest = 2;\n        listNotes[id].score = 0;\n        listNotes[id].finalized = false;\n    }\n    /**\n    * @dev Proffesor can open and close revisions process\n * @param state of revisions process\n */\n    function closeOrOpenRevisions(bool state) public onlyProffesor {\n        revisionsClosed = state;\n    }\n    /**\n     * @dev Proffesor can see total balance of college\n * @return balance of college\n*/\n    function balanceOfCollege() public view onlyProffesor returns (uint){\n        return address(this).balance;\n    }\n    /**\n     * @dev convert wei to ether\n* @param amountInWei value in wei to convert\n * @return param value in wei format\n */\n    function convertWeiToEther(uint amountInWei) private pure returns (uint) {\n        return amountInWei / 1 ether;\n    }\n    // Modifier to allow just proffesor can do something\n    modifier onlyProffesor() {\n        require(proffesorAddress == msg.sender, \"You are not the owner.\");\n        _;\n    }\n    // Modifier to verify is revisions process is open or close\n    modifier closedRevisions() {\n        require(!revisionsClosed, \"The revisions finalized.\");\n        _;\n    } }\n",
  "sourcePath": "/Users/maurivargas17/Desktop/Examen2 Blockchain/contracts/TestCollege.sol",
  "compiler": {
    "name": "solc",
    "version": "0.8.14+commit.80d49f37.Emscripten.clang"
  },
  "schemaVersion": "3.4.7",
  "updatedAt": "2022-06-17T17:28:31.852Z",
  "devdoc": {
    "kind": "dev",
    "methods": {
      "balanceOfCollege()": {
        "details": "Proffesor can see total balance of college",
        "returns": {
          "_0": "balance of college"
        }
      },
      "closeOrOpenRevisions(bool)": {
        "details": "Proffesor can open and close revisions process",
        "params": {
          "state": "of revisions process"
        }
      },
      "createRevision((uint256,string,uint256,bool,uint256))": {
        "details": "create new Note and add in listNotes",
        "params": {
          "noteData": "new Note object"
        }
      },
      "finalizeReview(uint256,uint256)": {
        "details": "Proffesor can finalize revision for one student",
        "params": {
          "id": "of student, score of student"
        }
      },
      "request2T(uint256)": {
        "details": "Student can request 2T test",
        "params": {
          "id": "of student"
        }
      }
    },
    "version": 1
  },
  "userdoc": {
    "kind": "user",
    "methods": {},
    "version": 1
  }
}