{
  "contractName": "Notes",
  "abi": [
    {
      "inputs": [],
      "stateMutability": "nonpayable",
      "type": "constructor"
    },
    {
      "anonymous": false,
      "inputs": [
        {
          "indexed": false,
          "internalType": "bytes32",
          "name": "",
          "type": "bytes32"
        }
      ],
      "name": "alumno_evaluado",
      "type": "event"
    },
    {
      "anonymous": false,
      "inputs": [
        {
          "indexed": false,
          "internalType": "string",
          "name": "",
          "type": "string"
        }
      ],
      "name": "evento_revision",
      "type": "event"
    },
    {
      "inputs": [],
      "name": "profesor",
      "outputs": [
        {
          "internalType": "address",
          "name": "",
          "type": "address"
        }
      ],
      "stateMutability": "view",
      "type": "function",
      "constant": true
    },
    {
      "inputs": [
        {
          "internalType": "string",
          "name": "_idAlumno",
          "type": "string"
        },
        {
          "internalType": "uint256",
          "name": "_nota",
          "type": "uint256"
        }
      ],
      "name": "Evaluar",
      "outputs": [],
      "stateMutability": "nonpayable",
      "type": "function"
    },
    {
      "inputs": [
        {
          "internalType": "string",
          "name": "_idAlumno",
          "type": "string"
        }
      ],
      "name": "VerNotas",
      "outputs": [
        {
          "internalType": "uint256",
          "name": "",
          "type": "uint256"
        }
      ],
      "stateMutability": "view",
      "type": "function",
      "constant": true
    },
    {
      "inputs": [
        {
          "internalType": "string",
          "name": "_idAlumno",
          "type": "string"
        }
      ],
      "name": "Revision",
      "outputs": [],
      "stateMutability": "nonpayable",
      "type": "function"
    },
    {
      "inputs": [],
      "name": "VerRevisiones",
      "outputs": [
        {
          "internalType": "string[]",
          "name": "",
          "type": "string[]"
        }
      ],
      "stateMutability": "view",
      "type": "function",
      "constant": true
    }
  ],
  "bytecode": "0x608060405234801561001057600080fd5b50336000806101000a81548173ffffffffffffffffffffffffffffffffffffffff021916908373ffffffffffffffffffffffffffffffffffffffff160217905550610b45806100606000396000f3fe608060405234801561001057600080fd5b50600436106100575760003560e01c8063040d9f601461005c5780632cd22cd81461007857806333731af614610094578063df096576146100c4578063f22044e6146100e2575b600080fd5b61007660048036038101906100719190610693565b610100565b005b610092600480360381019061008d91906106ef565b61020f565b005b6100ae60048036038101906100a991906106ef565b610285565b6040516100bb9190610747565b60405180910390f35b6100cc6102d3565b6040516100d991906107a3565b60405180910390f35b6100ea6102f7565b6040516100f79190610908565b60405180910390f35b3360008054906101000a900473ffffffffffffffffffffffffffffffffffffffff1673ffffffffffffffffffffffffffffffffffffffff168173ffffffffffffffffffffffffffffffffffffffff161461018f576040517f08c379a0000000000000000000000000000000000000000000000000000000008152600401610186906109ad565b60405180910390fd5b6000836040516020016101a29190610a09565b6040516020818303038152906040528051906020012090508260016000838152602001908152602001600020819055507f9129eeeb684507aca017f10030b70e5bf86d129f417fcc5840348a957eb12cee816040516102019190610a39565b60405180910390a150505050565b60028190806001815401808255809150506001900390600052602060002001600090919091909150908051906020019061024a929190610460565b507fafd73f39162aa4c0421f362f3a3d26f44b23c73253256cfc1c68794b0973e0a08160405161027a9190610a8d565b60405180910390a150565b600080826040516020016102999190610a09565b6040516020818303038152906040528051906020012090506000600160008381526020019081526020016000205490508092505050919050565b60008054906101000a900473ffffffffffffffffffffffffffffffffffffffff1681565b60603360008054906101000a900473ffffffffffffffffffffffffffffffffffffffff1673ffffffffffffffffffffffffffffffffffffffff168173ffffffffffffffffffffffffffffffffffffffff1614610388576040517f08c379a000000000000000000000000000000000000000000000000000000000815260040161037f906109ad565b60405180910390fd5b6002805480602002602001604051908101604052809291908181526020016000905b828210156104565783829060005260206000200180546103c990610ade565b80601f01602080910402602001604051908101604052809291908181526020018280546103f590610ade565b80156104425780601f1061041757610100808354040283529160200191610442565b820191906000526020600020905b81548152906001019060200180831161042557829003601f168201915b5050505050815260200190600101906103aa565b5050505091505090565b82805461046c90610ade565b90600052602060002090601f01602090048101928261048e57600085556104d5565b82601f106104a757805160ff19168380011785556104d5565b828001600101855582156104d5579182015b828111156104d45782518255916020019190600101906104b9565b5b5090506104e291906104e6565b5090565b5b808211156104ff5760008160009055506001016104e7565b5090565b6000604051905090565b600080fd5b600080fd5b600080fd5b600080fd5b6000601f19601f8301169050919050565b7f4e487b7100000000000000000000000000000000000000000000000000000000600052604160045260246000fd5b61056a82610521565b810181811067ffffffffffffffff8211171561058957610588610532565b5b80604052505050565b600061059c610503565b90506105a88282610561565b919050565b600067ffffffffffffffff8211156105c8576105c7610532565b5b6105d182610521565b9050602081019050919050565b82818337600083830152505050565b60006106006105fb846105ad565b610592565b90508281526020810184848401111561061c5761061b61051c565b5b6106278482856105de565b509392505050565b600082601f83011261064457610643610517565b5b81356106548482602086016105ed565b91505092915050565b6000819050919050565b6106708161065d565b811461067b57600080fd5b50565b60008135905061068d81610667565b92915050565b600080604083850312156106aa576106a961050d565b5b600083013567ffffffffffffffff8111156106c8576106c7610512565b5b6106d48582860161062f565b92505060206106e58582860161067e565b9150509250929050565b6000602082840312156107055761070461050d565b5b600082013567ffffffffffffffff81111561072357610722610512565b5b61072f8482850161062f565b91505092915050565b6107418161065d565b82525050565b600060208201905061075c6000830184610738565b92915050565b600073ffffffffffffffffffffffffffffffffffffffff82169050919050565b600061078d82610762565b9050919050565b61079d81610782565b82525050565b60006020820190506107b86000830184610794565b92915050565b600081519050919050565b600082825260208201905092915050565b6000819050602082019050919050565b600081519050919050565b600082825260208201905092915050565b60005b83811015610824578082015181840152602081019050610809565b83811115610833576000848401525b50505050565b6000610844826107ea565b61084e81856107f5565b935061085e818560208601610806565b61086781610521565b840191505092915050565b600061087e8383610839565b905092915050565b6000602082019050919050565b600061089e826107be565b6108a881856107c9565b9350836020820285016108ba856107da565b8060005b858110156108f657848403895281516108d78582610872565b94506108e283610886565b925060208a019950506001810190506108be565b50829750879550505050505092915050565b600060208201905081810360008301526109228184610893565b905092915050565b600082825260208201905092915050565b7f4e6f207469656e6573207065726d69736f73207061726120656a65637574617260008201527f20657374612066756e63696f6e2e000000000000000000000000000000000000602082015250565b6000610997602e8361092a565b91506109a28261093b565b604082019050919050565b600060208201905081810360008301526109c68161098a565b9050919050565b600081905092915050565b60006109e3826107ea565b6109ed81856109cd565b93506109fd818560208601610806565b80840191505092915050565b6000610a1582846109d8565b915081905092915050565b6000819050919050565b610a3381610a20565b82525050565b6000602082019050610a4e6000830184610a2a565b92915050565b6000610a5f826107ea565b610a69818561092a565b9350610a79818560208601610806565b610a8281610521565b840191505092915050565b60006020820190508181036000830152610aa78184610a54565b905092915050565b7f4e487b7100000000000000000000000000000000000000000000000000000000600052602260045260246000fd5b60006002820490506001821680610af657607f821691505b602082108103610b0957610b08610aaf565b5b5091905056fea2646970667358221220b62cb6dc481be628f5837b7d306a07f0537139fbe15cbdb4e1f7703ed1d76e4f64736f6c634300080e0033",
  "immutableReferences": {},
  "source": "// SPDX-License-Identifier: MIT\npragma solidity  ^0.8.0;\n\n// -----------------------------------\n//  ALUMNO   |    ID    |      NOTA\n// -----------------------------------\n//  Marcos |    77755N    |      5\n//  Joan   |    12345X    |      9\n//  Maria  |    02468T    |      2\n//  Marta  |    13579U    |      3\n//  Alba   |    98765Z    |      5\n\ncontract Notes {\n\n    // Direccion del profesor\n    address public profesor;\n\n    // Mapping para relacionar el hash de la identidad del alumno con su nota del examen\n    mapping (bytes32 => uint) Notas;\n\n    // Array de los alumnos de pidan revisiones de examen\n    string [] revisiones;\n\n    // Eventos\n    event alumno_evaluado(bytes32);\n    event evento_revision(string);\n\n    // Constructor\n    constructor () {\n        profesor = msg.sender;\n    }\n\n    // Funcion para evaluar a alumnos\n    function Evaluar(string memory _idAlumno, uint _nota) public UnicamenteProfesor(msg.sender){\n        // Hash de la identificacion del alumno\n        bytes32 hash_idAlumno = keccak256(abi.encodePacked(_idAlumno));\n        // Relacion entre el hash de la identificacion del alumno y su nota\n        Notas[hash_idAlumno] = _nota;\n        // Emision del evento\n        emit alumno_evaluado(hash_idAlumno);\n    }\n\n    // Control de las funciones ejecutables por el profesor\n    modifier UnicamenteProfesor(address _direccion){\n        // Requiere que la direccion introducido por parametro sea igual al owner del contrato\n        require(_direccion == profesor, \"No tienes permisos para ejecutar esta funcion.\");\n        _;\n    }\n\n    // Funcion para ver las notas de un alumno\n    function VerNotas(string memory _idAlumno) public view returns(uint) {\n        // Hash de la identificacion del alumno\n        bytes32 hash_idAlumno = keccak256(abi.encodePacked(_idAlumno));\n        // Nota asociada al hash del alumno\n        uint nota_alumno = Notas[hash_idAlumno];\n        // Visualizar la nota\n        return nota_alumno;\n    }\n\n    // Funcion para pedir una revision del examen\n    function Revision(string memory _idAlumno) public {\n        // Almacenamiento de la identidad del alumno en un array\n        revisiones.push(_idAlumno);\n        // Emision del evento\n        emit evento_revision(_idAlumno);\n    }\n\n    // Funcion para ver los alumnos que han solicitado revision de examen\n    function VerRevisiones() public view UnicamenteProfesor(msg.sender) returns (string [] memory){\n        // Devolver las identidades de los alumnos\n        return revisiones;\n    }\n\n}\n",
  "sourcePath": "/Users/maurivargas17/Desktop/Notas Testing/contracts/Notes.sol",
  "compiler": {
    "name": "solc",
    "version": "0.8.14+commit.80d49f37.Emscripten.clang"
  },
  "schemaVersion": "3.4.7",
  "updatedAt": "2022-06-09T18:09:50.322Z",
  "networkType": "ethereum",
  "devdoc": {
    "kind": "dev",
    "methods": {},
    "version": 1
  },
  "userdoc": {
    "kind": "user",
    "methods": {},
    "version": 1
  }
}